:020000040000FA
:020000002329B2
:0400080080312729F3
:02000E00AA083E
:10001000031D0B280800F93000000000000000005C
:10002000FF3E031D0C28000000000000000000003F
:10003000AA0B0B28080072302100990022308C0096
:10004000023023008C0020008C01053021009D002F
:1000500060309E00951295111511951415108B1690
:100060000B118B170B1722000C14C8302000AA00AC
:10007000072022000C10C8302000AA000720220010
:100080000C14C8302000AA00072022000C10C83031
:100090002000AA00072022000C14C8302000AA006B
:1000A000072022000C10C8302000AA000720A10160
:1000B000A2010230A300A401A501A601A701A80185
:1000C000A90120002008AA00A00121009D187F2876
:1000D0001C08963C0318712801302000A300A401DD
:1000E0007D281C08323C03187A2802302000A30027
:1000F000A4017D282000A301A40121009D1420005B
:100100002908AB008C1E8A280130A900C830A10044
:10011000A2019D28AA0803199D28A108031D932860
:10012000A20803199D28A1080319A203A103031D16
:100130009D28A208031D9D28A9010130230603194B
:1001400024080319B128A308031DAA28A408031D25
:10015000AA28D42802302306031924080319FA28F0
:100160000F29A9080319BB280130A500A601643096
:10017000A700A801CB28A708031DC128A8080319B8
:10018000CB28AA080319CB280130A500A601A7088F
:100190000319A803A703A708031D0F29A808031D17
:1001A0000F29A501A6010F29A9080319E128AB0809
:1001B000031DE1280130A500A6016430A700A801B5
:1001C000F128A708031DE728A8080319F128AA08A1
:1001D0000319F1280130A500A601A7080319A803F7
:1001E000A703A708031D0F29A808031D0F29A501B0
:1001F000A6010F29A90803190F29AB08031D0F2910
:10020000AC01AD01A5080319AC0AA608031DAC0199
:100210002C08A5002D08A6006430A700A801251C05
:10022000132922000C1420002518182922000C1074
:100230002000251C1D2922000C15200025186128EE
:1002400022000C1161282000A00180311B280B1D09
:1002500009000530200095000130A0000B110900B5
:020000040001F9
:02000E00A4FF4D
:02001000FFDE11
:00000001FF
